:020000040040BA
:10000000E8244020510440004D0440004D044000CD
:100010004D0440004D0440004D044000000000002D
:100020000000000000000000000000004D0440003F
:100030004D044000000000004D0440004D0440000D
:100040004D0440004D0440004D0440004D0440006C
:100050004D0440004D0440004D0440004D0440005C
:100060004D0440000000000075024000890240007D
:100070009D0240004D0440004D0440004D044000EE
:10008000B1024000C50240004D0440004D04400054
:100090004D0440004D0440004D0440004D0440001C
:1000A0004D0440004D0440004D0440004D0440000C
:1000B0004D0440004D0440004D0440004D044000FC
:1000C0004D0440004D0440004D0440004D044000EC
:1000D000000000004D044000000000004D044000FE
:1000E0004D0440004D0440004D0440004D044000CC
:1000F0004D0440004D0440004D0440004D044000BC
:100100004D0440004D0440004D0440004D044000AB
:100110004D0440000000000000000000000000004E
:100120004D0440004D0440004D0440004D0440008B
:100130004D044000000000004D0440004D0440000C
:1001400010B5054C237833B9044B13B10448AFF311
:1001500000800123237010BD340440200000000003
:10016000A00940000C4B43B10C480D4910B5AFF34A
:1001700000800C48036823B910BD0A48036833B9EE
:100180007047094B002BF7D0BDE810401847064BCD
:10019000002BF5D0184700BF00000000A009400068
:1001A00038044020A00940000000000010B51048AD
:1001B000104B98473E2100200F4B98470F4CA0470B
:1001C0000028FCD00E4B98470E4A0F4B9A620F4CFA
:1001D000A0470028FCD002200D4B984700200D4B73
:1001E00098470D4B98470248024B984710BD00BFF7
:1001F00000A3E1112506400075034000C90340003B
:10020000D9034000013F182000060E40E9034000DA
:10021000D90240001103400019054000C06C70472E
:10022000806C70472DE9F041044688460E4B984794
:10023000054620460D4B9847054013D00C4C04F161
:10024000600603E0B4420DD010345DB12068404533
:10025000F8D161682942F5D0E3689847636825EAD8
:100260000305EFE7BDE8F0811D02400021024000D8
:100270005004402008B50A210148024B984708BDA8
:10028000000E0E402502400008B50B210148024B2C
:10029000984708BD00100E402502400008B50C210B
:1002A0000148024B984708BD00120E40250240004D
:1002B00008B510210148024B984708BD00140E40B4
:1002C0002502400008B511210148024B984708BD9E
:1002D00000160E4025024000032811D0042812D039
:1002E00002280CBF4FF480710021084A136B23F4DD
:1002F00040730B431363936E13F0080FFBD07047EA
:100300004FF44071F1E74FF40071EEE700060E4044
:10031000174A136B23F0700318431063936E13F0A6
:10032000080F0AD14FF4805311498A6E12F0080F5A
:1003300003D1013BF9D1012070470D4A136B23F023
:10034000030343F002031363936E13F0080F0AD103
:100350004FF4805306498A6E12F0080F05D1013B15
:10036000F9D101207047002070470020704700BF7E
:1003700000060E40A0B90E48036A090289B20D4A70
:100380001A400D4B1343194301620246936E13F05A
:10039000010FFBD0064A116A084B0B4313627047EA
:1003A00003490B6A064A1A40064B13430B62704717
:1003B00000060E40FCFFC8FF0100370000003701B7
:1003C000FCFFC8FE02003701024B986E00F480303B
:1003D000704700BF00060E404FF00052014B9A627A
:1003E000704700BF00060E40024B986E00F00200FE
:1003F000704700BF00060E403F281ED81F280CD8AB
:10040000114B9A6901238340934318D0012303FAC7
:1004100000F00D4B18610020704720380A4BD3F8CC
:1004200008210123834093430BD0012303FA00F0FA
:10043000054BC3F8000100207047012070470020E1
:1004400070470020704700BF00060E40FEE7000026
:1004500000B583B0254B264A9A4210D0254B234A3B
:100460009A420CD2013B9B1A23F00303043313443A
:100470001F4951F8040B42F8040B9A42F9D11E4B64
:100480001E4A9A420AD2013B9B1A23F0030304330B
:100490001344002142F8041B9342FBD1184A194B24
:1004A00023F07F039360EFF31083B3FA83F35B09C8
:1004B000019372B6BFF35F8F0022134B1A7001993C
:1004C000124A136843F470031360BFF34F8FBFF3F6
:1004D0006F8F29B101220C4B1A70BFF35F8F62B688
:1004E0000B4B98470B4B9847FEE700BF000040209E
:1004F000A009400034044020E4044020340440209B
:1005000000ED00E0000040000000402088ED00E029
:1005100009084000590740003B4B1B6B03F00303E5
:10052000012B1DD083B1022B36D0374B1B6B03F050
:100530007003702B5FD0344B1A6B3449C2F3021234
:100540000B68D3400B607047314B5B6913F0800F31
:1005500014BF4FF400424FF4FA422C4B1A60E4E708
:10056000294B1B6A13F0807F03D02A4A274B1A605D
:10057000DBE7294A254B1A60234B1B6A03F0700303
:10058000102B05D0202BD0D1224A204B1A60CCE76B
:10059000224A1E4B1A60C8E71B4B1B6A13F0807F70
:1005A00016D01C4A194B1A60174B1B6B03F0030340
:1005B000022BBAD1144A916A926A1448C1F30A41D3
:1005C000036801FB0333D2B2B3FBF2F30360ACE781
:1005D000114A0E4B1A600C4B1B6A03F07003102B70
:1005E00005D0202BE0D10B4A084B1A60DCE70B4A00
:1005F000064B1A60D8E7054A13680949A1FB0313A3
:100600005B081360704700BF00060E4004004020E6
:1006100010180E40001BB70000093D0000127A00C0
:10062000ABAAAAAA124B984211D9124B984213D9DD
:10063000114B984214D9114B984215D9104B98423E
:1006400094BF4FF004220F4A0F4B1A6070474FF0CF
:1006500080620D4B1A6070470C4A0B4B1A60704752
:100660000B4A094B1A6070470A4A074B1A607047D9
:10067000FF2C3101FF596202FF869303FFB3C404CC
:10068000FFE0F50500050004000C0E400001000429
:100690000002000400030004044B03FB00F020B13F
:1006A000002300BF01338342FBD17047E093040075
:1006B00010B5234B98474FF40042224B5A600C2050
:1006C000214CA0470A20A0470C20A0470B20A047A0
:1006D0001020A0470C20A0470A20A0471B4B4FF436
:1006E00080721A611A601A635A651A66184A0121E3
:1006F000116111601163516511664FF080411961FC
:10070000196019635965196601F5612104200861B2
:1007100008600863486508660E484FF080544466D8
:10072000C0F884404FF400215966C3F88410516624
:10073000C2F8841044664FF000405866516610BD00
:10074000AD01400050180E40F903400000120E4069
:10075000000E0E4000140E402DE9F84F244B984730
:10076000DFF8A0A0234E244F244C06E04FF0804336
:100770003B63F36B13F4002F26D0DAF83C3013F010
:10078000805F0FD105254FF00108C146C6F83490AF
:10079000C820A047C6F83080C820A047013DF5D149
:1007A00001233363FB6B002BE3DB05254FF080480F
:1007B000C146C7F83490C820A047C7F83080C82089
:1007C000A047013DF5D1D1E70525DFF834804FF092
:1007D0000409CB46C8F834B0C820A047C8F8309008
:1007E000C820A047013DF5D10422054B1A63C4E798
:1007F000B1064000000E0E4000120E409906400067
:1008000000100E4000140E4070B50F4E0F4D761BB9
:10081000B61018BF002405D0013455F8043B9847A2
:10082000A642F9D10A4E0B4D761B00F0A7F8B61080
:1008300018BF002406D0013455F8043B9847A6425F
:10084000F9D170BD70BD00BF880940008809400023
:100850009009400088094000024B13B1024800F0A3
:1008600005B87047000000007908400000230146E9
:100870001A46184600F01EB838B50A4C0A4D641BDB
:10088000A4100AD004F18043013B05EB8305013C31
:1008900055F804399847002CF9D1BDE8384000F0EC
:1008A00077B800BFA00940009C094000704700BF16
:1008B000704700BF2DE9F8432C4D0646286898463E
:1008C0000F469146FFF7F2FF294B1C68D4F84831D8
:1008D000002B3ED05A681F2A1CDC02F1010E76B1B3
:1008E00003EB82010124C1F88890D3F88801944079
:1008F0002043022EC3F88801C1F8088123D00232B8
:10090000C3F804E0286843F82270FFF7D1FF002005
:10091000BDE8F883174B0BB34FF4C870AFF30080FA
:100920000346D8B1D4F848210260002141600A464C
:10093000C4F848014FF0010EC0F88811C0F88C11BE
:10094000002EDCD0CCE7D3F88C110C43C3F88C41DB
:10095000D5E704F5A673C4F84831BBE72868FFF76C
:10096000A7FF4FF0FF30BDE8F88300BF3004402000
:10097000780940000000000008004020F8B500BFE2
:10098000F8BC08BC9E46704759084000650140000D
:10099000F8B500BFF8BC08BC9E4670474101400056
:1009A0000100000000093D0000000000F4024020AA
:1009B0005C034020C4034020000000000000000051
:1009C0000000000000000000000000000000000027
:1009D0000000000000000000000000000000000017
:1009E0000000000000000000000000000000000007
:1009F00000000000000000000000000000000000F7
:100A000000000000000000000000000000000000E6
:100A100000000000000000000000000000000000D6
:100A200000000000000000000000000000000000C6
:100A300000000000000000000000000000000000B6
:100A400000000000000000000000000000000000A6
:100A500001000000000000000E33CDAB34126DE643
:100A6000ECDE05000B0000000000000000000000AC
:100A70000000000000000000000000000000000076
:100A80000000000000000000000000000000000066
:100A90000000000000000000000000000000000056
:100AA0000000000000000000000000000000000046
:040DD000C0044020FB
:040000050040045162
:00000001FF
